{
  "address": "0xF4d00Ccc079337aBC60B96871C2d20Aa44807637",
  "abi": [
    {
      "inputs": [
        {
          "internalType": "address",
          "name": "exampleExternalContractAddress",
          "type": "address"
        }
      ],
      "stateMutability": "nonpayable",
      "type": "constructor"
    },
    {
      "anonymous": false,
      "inputs": [
        {
          "indexed": true,
          "internalType": "address",
          "name": "staker",
          "type": "address"
        },
        {
          "indexed": false,
          "internalType": "uint256",
          "name": "amount",
          "type": "uint256"
        }
      ],
      "name": "Stake",
      "type": "event"
    },
    {
      "inputs": [
        {
          "internalType": "address",
          "name": "",
          "type": "address"
        }
      ],
      "name": "balances",
      "outputs": [
        {
          "internalType": "uint256",
          "name": "",
          "type": "uint256"
        }
      ],
      "stateMutability": "view",
      "type": "function"
    },
    {
      "inputs": [],
      "name": "deadline",
      "outputs": [
        {
          "internalType": "uint256",
          "name": "",
          "type": "uint256"
        }
      ],
      "stateMutability": "view",
      "type": "function"
    },
    {
      "inputs": [],
      "name": "exampleExternalContract",
      "outputs": [
        {
          "internalType": "contract ExampleExternalContract",
          "name": "",
          "type": "address"
        }
      ],
      "stateMutability": "view",
      "type": "function"
    },
    {
      "inputs": [],
      "name": "execute",
      "outputs": [],
      "stateMutability": "nonpayable",
      "type": "function"
    },
    {
      "inputs": [],
      "name": "openForWithdraw",
      "outputs": [
        {
          "internalType": "bool",
          "name": "",
          "type": "bool"
        }
      ],
      "stateMutability": "view",
      "type": "function"
    },
    {
      "inputs": [],
      "name": "stake",
      "outputs": [],
      "stateMutability": "payable",
      "type": "function"
    },
    {
      "inputs": [],
      "name": "threshold",
      "outputs": [
        {
          "internalType": "uint256",
          "name": "",
          "type": "uint256"
        }
      ],
      "stateMutability": "view",
      "type": "function"
    },
    {
      "inputs": [],
      "name": "timeLeft",
      "outputs": [
        {
          "internalType": "uint256",
          "name": "",
          "type": "uint256"
        }
      ],
      "stateMutability": "view",
      "type": "function"
    },
    {
      "inputs": [],
      "name": "withdraw",
      "outputs": [],
      "stateMutability": "nonpayable",
      "type": "function"
    },
    {
      "stateMutability": "payable",
      "type": "receive"
    }
  ],
  "transactionHash": "0x6847d48d6aeb296f31d4c7d727c6526d1e39b9e7a03c4329bba37faf8014f637",
  "args": [
    "0xAE25ece716FAd7D8e16D9bB67C2C737982Ad10Ca"
  ],
  "numDeployments": 1,
  "solcInputHash": "c6bc82774295df491a5f0f90e421e1ff",
  "bytecode": "0x608060405234801561001057600080fd5b5060405161061538038061061583398101604081905261002f91610060565b600080546001600160a01b0319166001600160a01b038316179055610057426203f480610090565b600255506100b7565b60006020828403121561007257600080fd5b81516001600160a01b038116811461008957600080fd5b9392505050565b808201808211156100b157634e487b7160e01b600052601160045260246000fd5b92915050565b61054f806100c66000396000f3fe60806040526004361061008a5760003560e01c80633ccfd60b116100595780633ccfd60b1461011157806342cde4e81461012657806361461954146101425780639876a643146101575780639f75f2271461018157600080fd5b80631300a6d11461009e57806327e235e3146100c657806329dcb0cf146100f35780633a4b66f11461010957600080fd5b36610099576100976101b9565b005b600080fd5b3480156100aa57600080fd5b506100b36102a0565b6040519081526020015b60405180910390f35b3480156100d257600080fd5b506100b36100e13660046104a7565b60016020526000908152604090205481565b3480156100ff57600080fd5b506100b360025481565b6100976101b9565b34801561011d57600080fd5b506100976102c4565b34801561013257600080fd5b506100b3670de0b6b3a764000081565b34801561014e57600080fd5b506100976103de565b34801561016357600080fd5b506003546101719060ff1681565b60405190151581526020016100bd565b34801561018d57600080fd5b506000546101a1906001600160a01b031681565b6040516001600160a01b0390911681526020016100bd565b60025442106102055760405162461bcd60e51b815260206004820152601360248201527229ba30b5b4b733903832b934b7b21037bb32b960691b60448201526064015b60405180910390fd5b600034116102455760405162461bcd60e51b815260206004820152600d60248201526c09aeae6e840e6cadcc8408aa89609b1b60448201526064016101fc565b33600090815260016020526040812080543492906102649084906104ed565b909155505060405134815233907febedb8b3c678666e7f36970bc8f57abf6d8fa2e828c0da91ea5b75bf68ed101a9060200160405180910390a2565b600060025442106102b15750600090565b426002546102bf9190610506565b905090565b6002544210156103025760405162461bcd60e51b8152602060048201526009602482015268546f6f206561726c7960b81b60448201526064016101fc565b60035460ff1661034c5760405162461bcd60e51b81526020600482015260156024820152744e6f74206f70656e20666f7220776974686472617760581b60448201526064016101fc565b336000908152600160205260409020548061039f5760405162461bcd60e51b81526020600482015260136024820152724e6f7468696e6720746f20776974686472617760681b60448201526064016101fc565b336000818152600160205260408082208290555183156108fc0291849190818181858888f193505050501580156103da573d6000803e3d6000fd5b5050565b60025442101561041c5760405162461bcd60e51b8152602060048201526009602482015268546f6f206561726c7960b81b60448201526064016101fc565b60035460ff166104a557670de0b6b3a7640000471061049757600080546040805163522e117760e01b8152905147936001600160a01b039093169263522e11779285926004808301939282900301818588803b15801561047b57600080fd5b505af115801561048f573d6000803e3d6000fd5b505050505050565b6003805460ff191660011790555b565b6000602082840312156104b957600080fd5b81356001600160a01b03811681146104d057600080fd5b9392505050565b634e487b7160e01b600052601160045260246000fd5b80820180821115610500576105006104d7565b92915050565b81810381811115610500576105006104d756fea2646970667358221220ec94e194acb15d263113f1d787af8825191d423d19380f764f23c827dfb159b664736f6c63430008140033",
  "devdoc": {
    "kind": "dev",
    "methods": {},
    "version": 1
  },
  "userdoc": {
    "kind": "user",
    "methods": {},
    "version": 1
  },
  "storageLayout": {
    "storage": [
      {
        "astId": 18,
        "contract": "contracts/Staker.sol:Staker",
        "label": "exampleExternalContract",
        "offset": 0,
        "slot": "0",
        "type": "t_contract(ExampleExternalContract)12"
      },
      {
        "astId": 22,
        "contract": "contracts/Staker.sol:Staker",
        "label": "balances",
        "offset": 0,
        "slot": "1",
        "type": "t_mapping(t_address,t_uint256)"
      },
      {
        "astId": 27,
        "contract": "contracts/Staker.sol:Staker",
        "label": "deadline",
        "offset": 0,
        "slot": "2",
        "type": "t_uint256"
      },
      {
        "astId": 29,
        "contract": "contracts/Staker.sol:Staker",
        "label": "openForWithdraw",
        "offset": 0,
        "slot": "3",
        "type": "t_bool"
      }
    ],
    "types": {
      "t_address": {
        "encoding": "inplace",
        "label": "address",
        "numberOfBytes": "20"
      },
      "t_bool": {
        "encoding": "inplace",
        "label": "bool",
        "numberOfBytes": "1"
      },
      "t_contract(ExampleExternalContract)12": {
        "encoding": "inplace",
        "label": "contract ExampleExternalContract",
        "numberOfBytes": "20"
      },
      "t_mapping(t_address,t_uint256)": {
        "encoding": "mapping",
        "key": "t_address",
        "label": "mapping(address => uint256)",
        "numberOfBytes": "32",
        "value": "t_uint256"
      },
      "t_uint256": {
        "encoding": "inplace",
        "label": "uint256",
        "numberOfBytes": "32"
      }
    }
  }
}